S01200004441325441534B335F432E7372656353
S11300000C9434000C943E000C943E000C943E007E
S11300100C943E000C943E000C943E000C943E0064
S11300200C943E000C943E000C943E000C943E0054
S11300300C943E000C943E000C943E000C943E0044
S11300400C943E000C943E000C943E000C943E0034
S11300500C943E000C943E000C943E000C943E0024
S11300600C943E000C943E0011241FBECFEFD8E048
S1130070DEBFCDBF0E9440000C947E000C940000B3
S11300808FEF84B980E687B915B840E050E080E08E
S113009090E021E030E0E0E270E060E0F0E402C0F3
S11300A0272F362FAFE7BAE1C6E0A150B040C040D9
S11300B0E1F700C0000021303105B1F425B12F5F14
S11300C025B94F5F5F4F4A30510531F4F8B9472FD6
S11300D0562F872F962FE4CF01968530910501F78F
S11300E0E8B9872F962FDCCF2FE73AE1A6E021501D
S11300F03040A040E1F700C00000E0CFF894FFCF0B
S9030000FC
