S01200004441325441534B315F432E7372656355
S11300000C9434000C943E000C943E000C943E007E
S11300100C943E000C943E000C943E000C943E0064
S11300200C943E000C943E000C943E000C943E0054
S11300300C943E000C943E000C943E000C943E0044
S11300400C943E000C943E000C943E000C943E0034
S11300500C943E000C943E000C943E000C943E0024
S11300600C943E000C943E0011241FBECFEFD8E048
S1130070DEBFCDBF0E9440000C9454000C940000DD
S1130080389A81E088B991E02FE73AE186E021507F
S113009030408040E1F700C0000088B1813011F4A5
S10F00A018B8F2CF98B9F0CFF894FFCF55
S9030000FC
