:100000000C9434000C943E000C943E000C943E0082
:100010000C943E000C943E000C943E000C943E0068
:100020000C943E000C943E000C943E000C943E0058
:100030000C943E000C943E000C943E000C943E0048
:100040000C943E000C943E000C943E000C943E0038
:100050000C943E000C943E000C943E000C943E0028
:100060000C943E000C943E0011241FBECFEFD8E04C
:10007000DEBFCDBF0E9440000C9490000C940000A5
:100080001AB88FEF87B946E03CE029E093E01CC046
:1000900048B9EFE1FEE43197F1F700C0000038B94C
:1000A000EFE1FEE43197F1F700C0000028B9EFE17D
:1000B000FEE43197F1F700C0000098B9EFE1FEE4EB
:1000C0003197F1F700C0000089B1823009F348B9D7
:1000D000FFEF50E762E0F15050406040E1F700C0B0
:1000E000000038B98FEFE0E7F2E08150E040F040E7
:1000F000E1F700C0000028B95FEF60E782E05150EF
:1001000060408040E1F700C0000098B9EFEFF0E7F1
:1001100052E0E150F0405040E1F700C00000D4CF81
:04012000F894FFCF81
:00000001FF
