:100000000C9424010C9441010C9441010C94410185
:100010000C9441010C9441010C9441010C94410158
:100020000C9441010C9441010C9441010C94410148
:100030000C9441010C9441010C9441010C94410138
:100040000C9441010C9441010C9441010C94410128
:100050000C9441010C9441010C9441010C94410118
:100060000C9441010C944101000000000000005F6D
:1000700000000007000700147F147F14242A7F2A41
:10008000122313086462364955225000050300000C
:10009000001C2241000041221C0014083E081408E4
:1000A000083E0808005030000008080808080060F2
:1000B00060000020100804023E5149453E00427F86
:1000C000400042615149462141454B311814127F8D
:1000D0001027454545393C4A494930017109050316
:1000E0003649494936064949291E0036360000007E
:1000F0005636000008142241001414141414004150
:100100002214080201510906324979413E7E11113B
:10011000117E7F494949363E414141227F4141227A
:100120001C7F494949417F090909013E4149497AF2
:100130007F0808087F00417F41002040413F017F48
:10014000081422417F404040407F020C027F7F0420
:1001500008107F3E4141413E7F090909063E415159
:10016000215E7F09192946464949493101017F012C
:10017000013F4040403F1F2040201F3F4038403F4C
:100180006314081463070870080761514945430068
:100190007F41410002040810200041417F00040219
:1001A0000102044040404040000102040020545439
:1001B00054787F48444438384444442038444448C0
:1001C0007F3854545418087E0901020C5252523E92
:1001D0007F0804047800447D40002040443D007FB7
:1001E0001028440000417F40007C041804787C08FB
:1001F00004047838444444387C1414140808141453
:10020000187C7C080404084854545420043F44409B
:10021000203C4040207C1C2040201C3C4030403C86
:1002200044281028440C5050503C4464544C440022
:100230000836410000007F00000041360800100829
:10024000081008000000000011241FBECFEFD8E006
:10025000DEBFCDBF11E0A0E0B1E0E8E5FCE002C008
:1002600005900D92A233B107D9F723E0A2E3B1E0E4
:1002700001C01D92AC32B207E1F70E94A9020C94B2
:100280002A060C9400002A98662311F02E9A01C0C9
:100290002E988EBD0DB407FEFDCF2A9A089560E01A
:1002A0000E9443010895CF93DF93299A2A9A83EC01
:1002B00099E00197F1F700C0000029988BE594E4DC
:1002C0000197F1F700C00000299A2A9881E20E9464
:1002D0004F0183E10E944F0186E00E944F0182ECB2
:1002E0000E944F0180E20E944F0189E00E944F016D
:1002F00080E80E944F0180E40E944F01C8EFD1E0E6
:1003000061E080E00E9443012197D1F788E00E94DC
:100310004F018CE00E944F01DF91CF910895262F6D
:1003200026952695269590E034E5239F800D911D16
:100330001124442379F0FC01EE5CFE4F677081E0EC
:1003400090E002C0880F991F6A95E2F79081892B8F
:1003500080830895FC01EE5CFE4F677081E090E0C1
:1003600002C0880F991F6A95E2F7809590818923D2
:10037000808308954F925F926F927F928F929F92A7
:10038000AF92BF92CF92DF92EF92FF920F931F93A3
:10039000CF93DF93562E262F30E04901880C991C0D
:1003A000880C991C820E931E181419040CF05EC060
:1003B0008901000F111F000F111F000F111F021BD9
:1003C000130B612CA82EB12CC50180975C01AA0CDF
:1003D000BB1CAA0CBB1CA80EB91E412C0F2EFBE2A5
:1003E000CF2EF3E0DF2EF02D0F2EFAE2EF2EF3E00A
:1003F000FF2EF02D2DC0FE01249130E0872D652DBC
:100400000E941E0302C0359527958A95E2F720FFCA
:100410000AC0F6016081670DF701808141E0860D19
:100420000E948F0109C0F6016081670DF70180818C
:10043000442D860D0E948F017394872D90E08017C4
:100440009107CCF26394862D90E08815990574F499
:1004500010161106BCF7862D652D0E941E03E501BE
:10046000C80FD11DC859DF4F742CC5CF80912A0306
:1004700091E0980F852D880F880F850D890F8435A1
:1004800018F480932A030EC010922A03EBE2F3E0E3
:10049000808191E0980F852D880F880F880F85192E
:1004A000890F808380912B03803320F010922A03E0
:1004B00010922B03DF91CF911F910F91FF90EF903E
:1004C000DF90CF90BF90AF909F908F907F906F9074
:1004D0005F904F9008951F93CF93DF93EC01888135
:1004E000882341F0162F2196612F0E94BA0189912D
:1004F0008111FACFDF91CF911F9108950F931F9330
:10050000CF93DF9380E80E944F0180E40E944F0167
:10051000C2E3D1E00AE213E061E089910E94430165
:10052000C017D107C9F7DF91CF911F910F9108959F
:10053000ECE7F0E080811082EAE7F0E080818064FF
:100540008083808186FDFDCF809178009091790035
:100550000895CF93DF93CDB7DEB728970FB6F89401
:10056000DEBF0FBECDBF8FEF84B981E58CBD0E9489
:10057000530161E080E091E00E946B0210922A0337
:100580008AE080932B0361E08CE091E00E946B0293
:1005900080E880937A000F2EF3E08F2E912CF02DBF
:1005A0000F2EFBE1AF2EF1E0BF2EF02DCE01019614
:1005B0006C010F2EFAE2EF2EF3E0FF2EF02D0BE28E
:1005C00013E00F2EF4E16F2EF02D0F2EFEE17F2EA3
:1005D000F02D0E949802B4010E942A037F936F932A
:1005E000BF92AF92DF92CF920E945203F701108226
:1005F000F801608261E0C6010E946B0261E08EE159
:1006000091E00E946B02F7011082F80170820F9056
:100610000F900F900F900F900F9061E087E291E0A4
:100620000E946B020E947E02FFE32DE083E0F15006
:1006300020408040E1F700C00000CBCF991B79E05B
:1006400004C0991F961708F0961B881F7A95C9F762
:100650008095089597FB072E16F4009407D077FD38
:1006600009D00E943E0307FC05D03EF49095819589
:100670009F4F0895709561957F4F0895AA1BBB1BEE
:1006800051E107C0AA1FBB1FA617B70710F0A61B92
:10069000B70B881F991F5A95A9F780959095BC01B3
:1006A000CD010895AEE0B0E0E8E5F3E00C9401067A
:1006B0000D891E8986E08C831A8309838FEF9FE75B
:1006C0009E838D83AE01475E5F4F6F89788DCE012B
:1006D00001960E9475032F813885F801E20FF31F00
:1006E00010822E96E4E00C941D06ACE0B0E0EBE73F
:1006F000F3E00C94F3057C016B018A01FC01178285
:100700001682838181FFBDC1CE0101964C01F701A4
:100710009381F60193FD859193FF81916F01882369
:1007200009F4ABC1853239F493FD859193FF819132
:100730006F01853229F4B70190E00E945D05E7CF93
:10074000512C312C20E02032A0F48B3269F030F4AF
:10075000803259F0833269F420612CC08D3239F037
:10076000803339F4216026C02260246023C02860D1
:1007700021C027FD27C030ED380F3A3078F426FF2E
:1007800006C0FAE05F9E300D1124532E13C08AE09C
:10079000389E300D1124332E20620CC08E3221F48D
:1007A00026FD6BC1206406C08C3611F4206802C09F
:1007B000883641F4F60193FD859193FF81916F0195
:1007C0008111C1CF982F9F7D9554933028F40C5FF1
:1007D0001F4FFFE3F9830DC0833631F0833771F08B
:1007E000833509F05BC022C0F801808189830E5FE8
:1007F0001F4F44244394512C540115C03801F2E09A
:100800006F0E711CF801A080B18026FF03C0652D1A
:1008100070E002C06FEF7FEFC5012C870E94520588
:100820002C0183012C852F77222E17C03801F2E08E
:100830006F0E711CF801A080B18026FF03C0652DEA
:1008400070E002C06FEF7FEFC5012C870E94470563
:100850002C012C852068222E830123FC1BC0832DB4
:1008600090E048165906B0F4B70180E290E00E948B
:100870005D053A94F4CFF50127FC859127FE81911F
:100880005F01B70190E00E945D0531103A94F1E0FC
:100890004F1A51084114510471F7E5C0843611F024
:1008A000893639F5F80127FF07C06081718182819F
:1008B00093810C5F1F4F08C060817181072E000C6F
:1008C000880B990B0E5F1F4F2F76722E97FF09C072
:1008D00090958095709561957F4F8F4F9F4F2068C1
:1008E000722E2AE030E0A4010E949505A82EA818D7
:1008F00044C0853729F42F7EB22E2AE030E025C08F
:10090000F22FF97FBF2E8F36C1F018F4883579F0B9
:10091000B4C0803719F0883721F0AFC02F2F206185
:10092000B22EB4FE0DC08B2D8460B82E09C024FFFA
:100930000AC09F2F9660B92E06C028E030E005C09F
:1009400020E130E002C020E132E0F801B7FE07C04C
:1009500060817181828193810C5F1F4F06C060812D
:10096000718180E090E00E5F1F4FA4010E94950509
:10097000A82EA818FB2DFF777F2E76FE0BC0372DF3
:100980003E7FA51450F474FE0AC072FC08C0372DD7
:100990003E7E05C0BA2C372D03C0BA2C01C0B52C41
:1009A00034FF0DC0FE01EA0DF11D8081803311F48A
:1009B000397E09C032FF06C0B394B39404C0832FBC
:1009C000867809F0B39433FD13C030FF06C05A2C6B
:1009D000B31418F4530C5B18B32CB31468F4B701B8
:1009E00080E290E03C870E945D05B3943C85F5CFA2
:1009F000B31410F43B1801C0312C34FF12C0B701FE
:100A000080E390E03C870E945D053C8532FF17C083
:100A100031FD03C088E790E002C088E590E0B701AF
:100A20000CC0832F867859F031FF02C08BE201C0E1
:100A300080E237FD8DE2B70190E00E945D05A514CC
:100A400038F4B70180E390E00E945D055A94F7CF37
:100A5000AA94F401EA0DF11D8081B70190E00E9493
:100A60005D05A110F5CF332009F451CEB70180E226
:100A700090E00E945D053A94F6CFF7018681978158
:100A800002C08FEF9FEF2C96E2E10C940F06FC0161
:100A90000590615070400110D8F7809590958E0FA9
:100AA0009F1F0895FC016150704001900110D8F71C
:100AB000809590958E0F9F1F08950F931F93CF934E
:100AC000DF93FB01238121FD03C08FEF9FEF28C03F
:100AD00022FF16C046815781248135814217530772
:100AE00044F4A081B1819D012F5F3F4F318320836A
:100AF0008C93268137812F5F3F4F3783268310C029
:100B0000EB01092F182F0084F185E02D0995892B21
:100B1000E1F68E819F8101969F838E83812F902F96
:100B2000DF91CF911F910F910895FA01AA272830E4
:100B300051F1203181F1E8946F936E7F6E5F7F4FAA
:100B40008F4F9F4FAF4FB1E03ED0B4E03CD0670F26
:100B5000781F891F9A1FA11D680F791F8A1F911D79
:100B6000A11D6A0F711D811D911DA11D20D009F4C9
:100B700068943F912AE0269F11243019305D31930B
:100B8000DEF6CF010895462F4770405D4193B3E0F4
:100B90000FD0C9F7F6CF462F4F70405D4A3318F09B
:100BA000495D31FD4052419302D0A9F7EACFB4E04C
:100BB000A6959795879577956795BA95C9F7009704
:100BC0006105710508959B01AC010A2E06945795A5
:100BD000479537952795BA95C9F7620F731F841FFC
:100BE000951FA01D08952F923F924F925F926F9292
:100BF0007F928F929F92AF92BF92CF92DF92EF92AD
:100C0000FF920F931F93CF93DF93CDB7DEB7CA1B2D
:100C1000DB0B0FB6F894DEBF0FBECDBF09942A8858
:100C2000398848885F846E847D848C849B84AA8400
:100C3000B984C884DF80EE80FD800C811B81AA818D
:100C4000B981CE0FD11D0FB6F894DEBF0FBECDBF58
:080C5000ED010895F894FFCFB7
:100C58005468652063757272656E740074656D7092
:100C6800657261747572652069730025640020647B
:100C78006567726565730046616872656E68656967
:020C88007400F6
:00000001FF
