S01A00004441355F5441534B315F44435F4D4F544F522E73726563B7
S11300000C9434000C943E000C943E000C943E007E
S11300100C943E000C943E000C943E000C943E0064
S11300200C943E000C943E000C943E000C943E0054
S11300300C943E000C943E000C943E000C943E0044
S11300400C943E000C943E000C943E000C943E0034
S11300500C943E000C943E000C943E000C943E0024
S11300600C943E000C943E0011241FBECFEFD8E048
S1130070DEBFCDBF0E9440000C9458000C940000D9
S11300808FEF87B980E288B92FEF30E792E02150F3
S113009030409040E1F700C0000018B82FEF30E77F
S11300A092E0215030409040E1F700C00000EBCFD7
S10700B0F894FFCFEE
S9030000FC
