:100000000C9434000C943E000C943E000C943E0082
:100010000C943E000C943E000C943E000C943E0068
:100020000C943E000C943E000C943E000C943E0058
:100030000C943E000C943E000C943E000C943E0048
:100040000C943E000C943E000C943E000C943E0038
:100050000C943E000C943E000C943E000C943E0028
:100060000C943E000C943E0011241FBECFEFD8E04C
:10007000DEBFCDBF0E9451000C9477000C940000AD
:10008000ECE7F0E080811082EAE7F0E080818064B4
:100090008083808186FDFDCF8091780090917900EA
:1000A00008958FEF84B980E29EE490938700809357
:1000B0008600E0E8F0E0808182688083E1E8F0E09B
:1000C00080818A61808380E880937A00C8E8D0E0EC
:1000D0000E944000EFE3FCE93197F1F700C0000017
:1000E000845D9E4F880F991F99838883F1CFF89480
:0200F000FFCF40
:00000001FF
