:020000020000FC
:040000000C941E003E
:100038000C9441003D9A3E9A219A209A229A239A3A
:10004800249A259A269A279A50E020E030E048E042
:100058004EBF4FEF4EBF47E04093890041EA4093BF
:10006800880040E0409380004DE04093810042E0EA
:1000780040936F0078940C943F0023953395253076
:1000880019F440E248B920E03A3019F440E448B99C
:1000980030E0539555B94FE04093890045E44093CB
:1000A800880040E0409380004DE04093810018951F
:00000001FF
