S00B00004441332E7372656361
S11300000C9434000C9451000C9451000C94510045
S11300100C9451000C9451000C9451000C94510018
S11300200C9451000C9451000C9451000C948B00CE
S11300300C9451000C9451000C9451000C945100F8
S11300400C9451000C9451000C9451000C945100E8
S11300500C9451000C9451000C9451000C945100D8
S11300600C9451000C94510011241FBECFEFD8E022
S1130070DEBFCDBF11E0A0E0B1E0EEE4F7E002C0E6
S113008005900D92A630B107D9F721E0A6E0B1E0C2
S113009001C01D92A331B207E1F70E9475000C94D0
S11300A0A5030C9400001092C50083E38093C40060
S11300B0E1ECF0E0808188618083E2ECF0E0808113
S11300C08660808308958091C00088236CF0A6EC3C
S11300D0B0E0E0ECF0E08C9190E090930C01809320
S11300E00B0180818823BCF708950E94530010926D
S11300F080008DE08093810085E89EE190938900E3
S113010080938800EFE6F0E08081826080837894B9
S11301100E946300FDCF1F920F920FB60F9211241D
S11301202F933F934F935F936F937F938F939F93FB
S1130130AF93BF93EF93FF9380910B0190910C01C8
S11301409F938F9380E091E09F938F931F9285E01C
S11301508F9386E091E09F938F930E94E2008091B9
S1130160C0002DB73EB7285F3F4F0FB6F8943EBF8F
S11301700FBE2DBF85FD0AC0A6ECB0E086E091E07D
S1130180E0ECF0E08C93908195FFFCCF109280001E
S11301908DE08093810085E89EE1909389008093AF
S11301A08800FF91EF91BF91AF919F918F917F91C3
S11301B06F915F914F913F912F910F900FBE0F90D0
S11301C01F901895A0E0B0E0E8EEF0E00C947E03F8
S11301D0FE01359661917191AF0180910F0190916B
S11301E010010E94F600E2E00C949A03ACE0B0E047
S11301F0ECEFF0E00C946E037C016B018A01FC01CE
S113020017821682838181FFBDC1CE0101964C0104
S1130210F7019381F60193FD859193FF81916F011D
S1130220882309F4ABC1853239F493FD859193FF9A
S113023081916F01853229F4B70190E00E94DE02BA
S1130240E7CF512C312C20E02032A0F48B3269F01E
S113025030F4803259F0833269F420612CC08D323D
S113026039F0803339F4216026C02260246023C031
S1130270286021C027FD27C030ED380F3A3078F4CC
S113028026FF06C0FAE05F9E300D1124532E13C0E2
S11302908AE0389E300D1124332E20620CC08E3239
S11302A021F426FD6BC1206406C08C3611F420684D
S11302B002C0883641F4F60193FD859193FF819144
S11302C06F018111C1CF982F9F7D9554933028F4ED
S11302D00C5F1F4FFFE3F9830DC0833631F0833782
S11302E071F0833509F05BC022C0F80180818983F5
S11302F00E5F1F4F44244394512C540115C0380100
S1130300F2E06F0E711CF801A080B18026FF03C0DB
S1130310652D70E002C06FEF7FEFC5012C870E944E
S1130320D3022C0183012C852F77222E17C038018C
S1130330F2E06F0E711CF801A080B18026FF03C0AB
S1130340652D70E002C06FEF7FEFC5012C870E941E
S1130350C8022C012C852068222E830123FC1BC09B
S1130360832D90E048165906B0F4B70180E290E07E
S11303700E94DE023A94F4CFF50127FC859127FE12
S113038081915F01B70190E00E94DE0231103A943E
S1130390F1E04F1A51084114510471F7E5C0843655
S11303A011F0893639F5F80127FF07C060817181A2
S11303B0828193810C5F1F4F08C0608171818827FF
S11303C077FD8095982F0E5F1F4F2F76B22E97FFE3
S11303D009C090958095709561957F4F8F4F9F4F81
S11303E02068B22E2AE030E0A4010E941003A82E57
S11303F0A81844C0853729F42F7EB22E2AE030E0B5
S113040025C0F22FF97FBF2E8F36C1F018F488353E
S113041079F0B4C0803719F0883721F0AFC02F2F9E
S11304202061B22EB4FE0DC08B2D8460B82E09C09D
S113043024FF0AC09F2F9660B92E06C028E030E042
S113044005C020E130E002C020E132E0F801B7FE4F
S113045007C060817181828193810C5F1F4F06C048
S11304606081718180E090E00E5F1F4FA4010E94C3
S11304701003A82EA818FB2DFF77BF2EB6FE0BC0C5
S11304802B2D2E7FA51450F4B4FE0AC0B2FC08C074
S11304902B2D2E7E05C07A2C2B2D03C07A2C01C067
S11304A0752C24FF0DC0FE01EA0DF11D80818033FF
S11304B011F4297E09C022FF06C07394739404C00A
S11304C0822F867809F0739423FD13C020FF06C0A1
S11304D05A2C731418F4530C5718732C731468F4AF
S11304E0B70180E290E02C870E94DE0273942C8591
S11304F0F5CF731410F4371801C0312C24FF12C047
S1130500B70180E390E02C870E94DE022C8522FF55
S113051017C021FF03C088E590E002C088E790E09F
S1130520B7010CC0822F867859F021FD02C080E209
S113053001C08BE227FD8DE2B70190E00E94DE024C
S1130540A51438F4B70180E390E00E94DE025A94C7
S1130550F7CFAA94F401EA0DF11D8081B70190E070
S11305600E94DE02A110F5CF332009F451CEB70169
S113057080E290E00E94DE023A94F6CFF701868191
S1130580978102C08FEF9FEF2C96E2E10C948A03CF
S1130590FC010590615070400110D8F7809590954A
S11305A08E0F9F1F0895FC0161507040019001104F
S11305B0D8F7809590958E0F9F1F08950F931F93E2
S11305C0CF93DF93182F092FEB018B8181FD03C09B
S11305D08FEF9FEF20C082FF10C04E815F812C817E
S11305E03D81421753077CF4E881F9819F012F5F15
S11305F03F4F39832883108306C0E885F985812F0E
S11306000995892B29F72E813F812F5F3F4F3F8327
S11306102E83812F902FDF91CF911F910F910895F9
S1130620FA01AA27283051F1203181F1E8946F931F
S11306306E7F6E5F7F4F8F4F9F4FAF4FB1E03ED0C5
S1130640B4E03CD0670F781F891F9A1FA11D680F63
S1130650791F8A1F911DA11D6A0F711D811D911D96
S1130660A11D20D009F468943F912AE0269F11240B
S11306703019305D3193DEF6CF010895462F47706F
S1130680405D4193B3E00FD0C9F7F6CF462F4F70CA
S1130690405D4A3318F0495D31FD4052419302D028
S11306A0A9F7EACFB4E0A6959795879577956795CE
S11306B0BA95C9F700976105710508959B01AC01CE
S11306C00A2E06945795479537952795BA95C9F7F5
S11306D0620F731F841F951FA01D08952F923F92D0
S11306E04F925F926F927F928F929F92AF92BF923E
S11306F0CF92DF92EF92FF920F931F93CF93DF93EA
S1130700CDB7DEB7CA1BDB0B0FB6F894DEBF0FBE46
S1130710CDBF09942A88398848885F846E847D8493
S11307208C849B84AA84B984C884DF80EE80FD8095
S11307300C811B81AA81B981CE0FD11D0FB6F8940B
S1110740DEBF0FBECDBFED010895F894FFCFCC
S109074E2533640D0A00CE
S9030000FC
