S01200004441325441534B345F432E7372656352
S11300000C9434000C9451000C9451000C94510045
S11300100C9451000C9451000C9451000C94510018
S11300200C9451000C9451000C9451000C946B00EE
S11300300C9451000C9451000C9451000C945100F8
S11300400C9451000C9451000C9451000C945100E8
S11300500C9451000C9451000C9451000C945100D8
S11300600C9451000C94510011241FBECFEFD8E022
S1130070DEBFCDBF11E0A0E0B1E0E0E9F1E002C0F5
S113008005900D92A230B107D9F721E0A2E0B1E0CA
S113009001C01D92A630B207E1F70E9453000C94F0
S11300A0C6000C9400008FEF84B980E687B918B8B5
S11300B015B8109280008DE08093810081EA97E06A
S11300C09093890080938800EFE6F0E0808182605D
S11300D080837894FFCF1F920F920FB60F92112452
S11300E08F939F938091000190910101813091053C
S11300F099F585B18F5F85B98091040190910501CF
S113010001969093050180930401809102019091DE
S1130110030101969093030180930201109201015F
S1130120109200010A9759F480E488B910920301EF
S113013010920201109205011092040115C08091E1
S1130140040190910501059779F480E288B9109231
S113015005011092040108C0892B31F481E090E07C
S11301609093010180930001109280008DE08093B0
S1130170810081EA97E090938900809388009F91A1
S11301808F910F900FBE0F901F901895F894FFCF8A
S1050190010068
S9030000FC
