S00F00005472796E756D332E7372656353
S11300000C9434000C9451000C9451000C94510045
S11300100C9451000C9451000C9451000C94510018
S11300200C9451000C9451000C9451000C94510008
S11300300C9451000C9451000C9451000C945100F8
S11300400C9451000C9451000C9451000C945100E8
S11300500C9451000C9451000C9451000C945100D8
S11300600C9451000C94510011241FBECFEFD8E022
S1130070DEBFCDBF11E0A0E0B1E0E4E5F1E102C0F4
S113008005900D92A63BB107D9F722E0A6EBB1E0AB
S113009001C01D92A735B207E1F70E94CC010C9470
S11300A0A8080C9400001092B90080E28093B80074
S11300B0089594EA9093BC004FEF50E060E070E044
S11300C0ECEBF0E09081992334F04150510961093F
S11300D07109C0F704C0452B462B472B41F1909181
S11300E0B900987F983011F0903119F58093BB00D6
S11300F084E88093BC008FEF90E0A0E0B0E0ECEBEC
S1130100F0E0208122232CF00197A109B109C8F75E
S113011004C0892B8A2B8B2B71F09091B900987FA6
S1130120983159F081E0903449F480E0089581E0F9
S1130130089581E0089581E0089580E008951F9373
S1130140CF93DF93ECEBF0E064EA50E040E0A9EBFE
S1130150B0E0CBEBD0E074E814E96083252F342FB2
S11301609081992334F02F5F3F4F211591E0390797
S1130170B9F79C91987F983011F0903171F788838A
S11301807083252F342F9081992334F02F5F3F4FB4
S1130190211591E03907B9F79C91987F903211F0BD
S11301A0983569F41083252F342F908194FFD5CF8F
S11301B02F5F3F4F211591E03907B9F7CECFDF917B
S11301C0CF911F9108950E945900089584E9809366
S11301D0BC0080E090E0ECEBF0E0208124FF05C05F
S11301E00196811521E09207C1F708958093BB0021
S11301F084E88093BC008FEF90E0A0E0B0E0ECEBEB
S1130200F0E0208122232CF00197A109B109C8F75D
S113021004C0892B8A2B8B2B41F09091B900987FD5
S113022081E0983219F480E0089581E0089584EC27
S11302308093BC008FEF90E0A0E0B0E0ECEBF0E046
S1130240208122232CF00197A109B109C8F704C029
S1130250892B8A2B8B2B19F08091BB00089580E0A9
S1130260089584E88093BC008FEF90E0A0E0B0E0B4
S1130270ECEBF0E0208122232CF00197A109B109D5
S1130280C8F704C0892B8A2B8B2B19F08091BB00F3
S1130290089580E00895CF93DF93FC012081222309
S11302A069F0DC011196E0ECF0E0C6ECD0E090815E
S11302B095FFFDCF28832D912111F9CFDF91CF91A7
S11302C0089586E48093C2001092C50082E2809370
S11302D0C40088E08093C1000895CF93DF93D62FA4
S11302E0C42F0E9459008D2F0E94F6008C2F0E946B
S11302F0F6000E94E600DF91CF910895CF93DF933B
S1130300C82FD62F0E949F008D2F0E94F60081E0F7
S11303108C0F0E94E3000E941701C82F0E94310134
S1130320D0E0DC2FCC27C82B0E94E600CE01DF9161
S1130330CF910895CF93C82F0E94590080935602FD
S1130340882319F00E94E60023C040E06BE68C2F5E
S11303500E946D0147E069E18C2F0E946D0148E124
S11303606CE18C2F0E946D0148EF63E28C2F0E9498
S11303706D0140E167E38C2F0E946D0141E068E369
S11303808C2F0E946D0140E46AE68C2F0E946D015F
S11303900E94E600CF910895CF93DF93CDB7DEB7E7
S11303A029970FB6F894DEBF0FBECDBF80EF8AB990
S11303B017B80E9461010E9453002FEF33ED80E3D0
S11303C0215030408040E1F700C0000080ED0E94E1
S11303D09A019FEFE3EDF0E39150E040F040E1F744
S11303E000C000000AE010E06BE380ED0E947E0193
S11303F06DE380ED0E947E016FE380ED0E947E013B
S113040065E480ED0E947E0167E480ED0E947E0138
S113041069E480ED0E947E010150110929F72FEF54
S113042039E688E1215030408040E1F700C0000007
S113043088E0E0E0F1E0A8EEB1E001900D928A9549
S1130440E1F788EE91E00E944B019FEFE3EDF0E3CA
S11304509150E040F040E1F700C000008EE0E8E099
S1130460F1E0A8EEB1E001900D928A95E1F788EEF3
S113047091E00E944B012FEF39E688E12150304092
S11304808040E1F700C000008DE0E6E1F1E0A8EE75
S1130490B1E001900D928A95E1F788EE91E00E9417
S11304A04B019FEFE3EDF0E39150E040F040E1F7C2
S11304B000C000002FEF2D83EE24EA940F2EF8EEF7
S11304C02F2EF1E03F2EF02D0F2EFDE2FF2EF02D0A
S11304D00F2EF2E17F2EF02D02E611E00F2EFAE04E
S11304E04F2EFDE05F2E612CF02D6BE380ED0E941A
S11304F07E016C016BE380ED0E947E01C80ED91E63
S11305006BE380ED0E947E018C0D9D1DBC01990F53
S1130510880B990B0E94CA0420E030E040E450E4C8
S11305200E9420049B01AC010E94B40320E030E04F
S113053040E05AE30E9456050E9492044B015C017C
S11305406DE380ED0E947E016C016DE380ED0E94FD
S11305507E019F838E836DE380ED0E947E019987E7
S113056088876FE380ED0E947E019A8389836FE31D
S113057080ED0E947E01E981FA81E80FF91FFA8378
S1130580E9836FE380ED0E947E0129813A81820F25
S1130590931FBC01990F880B990B0E94CA0420E099
S11305A030E040E450E40E9420049B01AC010E942E
S11305B0B40320E030E040E05AE30E94560569832A
S11305C07A838B839C8365E480ED0E947E0165E4DD
S11305D080ED0E947E0165E480ED0E947E0167E467
S11305E080ED0E947E0167E480ED0E947E0167E455
S11305F080ED0E947E0169E480ED0E947E0169E441
S113060080ED0E947E0169E480ED0E947E01698193
S11306107A818B819C810E949204680D791D6130DE
S1130620710579F16E3F7F4F81F16E817F816C0D91
S11306307D1D88859985680F791F072E000C880B0E
S1130640990B0E94CA0420E030E040E450E40E9488
S113065020049B01AC010E94B40320E030E040E0A0
S11306605AE30E9456050E949204860E971E91E05A
S11306708916910471F08920809469F41D82E12C1B
S11306800AC0F4E6FD83E12C06C024E62D83E12CA8
S113069002C01D82E12C3FEF80E792E031508040A0
S11306A09040E1F700C00000E3E2F1E0D1018F2DBA
S11306B001900D928A95E1F7C1010E944B01EFEF81
S11306C0F3ED20E3E150F0402040E1F700C00000EA
S11306D0E0E5F1E0D101872D01900D928A95E1F7D3
S11306E0C1010E944B013FEF89E698E131508040FF
S11306F09040E1F700C00000EF92ED81EF931F936B
S11307000F931F92FEE6FF933F922F920E94C30520
S1130710C1010E944B01F1014082518262820FB6F5
S1130720F894DEBF0FBECDBF0F2EF6E1CF2EF02D15
S1130730D12CC1010E944B013FEF89E698E1315071
S113074080409040E1F700C00000E1E0CE1AD108FB
S113075081F7FFEF23ED30E3F15020403040E1F723
S113076000C00000C2CE5058BB27AA270E94CB036A
S11307700C941C050E940E0538F00E94150520F00B
S113078039F49F3F19F426F40C940B050EF4E0950C
S1130790E7FB0C940505E92F0E942D0558F3BA17C1
S11307A0620773078407950720F079F4A6F50C9483
S11307B04F050EF4E0950B2EBA2FA02D0B01B901B5
S11307C090010C01CA01A0011124FF27591B99F0C3
S11307D0593F50F4503E68F11A16F040A22F232FCF
S11307E0342F4427585FF3CF469537952795A7951F
S11307F0F0405395C9F77EF41F16BA0B620B730BC6
S1130800840BBAF09150A1F0FF0FBB1F661F771F36
S1130810881FC2F70EC0BA0F621F731F841F48F4EB
S1130820879577956795B795F7959E3F08F0B0CF74
S11308309395880F08F09927EE0F9795879508955B
S11308400E9434040C941C050E94150558F00E9463
S11308500E0540F029F45F3F29F00C940505511171
S11308600C9450050C940B050E942D0568F39923F4
S1130870B1F3552391F3951B550BBB27AA27621798
S11308807307840738F09F5F5F4F220F331F441FA5
S1130890AA1FA9F335D00E2E3AF0E0E832D09150D9
S11308A05040E695001CCAF72BD0FE2F29D0660FC6
S11308B0771F881FBB1F261737074807AB07B0E809
S11308C009F0BB0B802DBF01FF2793585F4F3AF00F
S11308D09E3F510578F00C9405050C9450055F3F3C
S11308E0E4F3983ED4F3869577956795B795F79595
S11308F09F5FC9F7880F911D9695879597F908957D
S1130900E1E0660F771F881FBB1F62177307840718
S1130910BA0720F0621B730B840BBA0BEE1F88F727
S1130920E09508950E9499046894B1110C945005BF
S113093008950E94350588F09F5798F0B92F99279C
S1130940B751B0F0E1F0660F771F881F991F1AF0B6
S1130950BA95C9F714C0B13091F00E944F05B1E0C7
S113096008950C944F05672F782F8827B85F39F0C6
S1130970B93FCCF3869577956795B395D9F73EF44F
S113098090958095709561957F4F8F4F9F4F0895F7
S1130990E89409C097FB3EF4909580957095619515
S11309A07F4F8F4F9F4F9923A9F0F92F96E9BB27CB
S11309B09395F695879577956795B795F111F8CF47
S11309C0FAF4BB0F11F460FF1BC06F5F7F4F8F4FB2
S11309D09F4F16C0882311F096E911C0772321F0A8
S11309E09EE8872F762F05C0662371F096E8862F40
S11309F070E060E02AF09A95660F771F881FDAF797
S1130A00880F9695879597F9089597F99F6780E8D9
S1130A1070E060E008959FEF80EC089500240A944C
S1130A201616170618060906089500240A941216C5
S1130A301306140605060895092E0394000C11F4F8
S1130A40882352F0BB0F40F4BF2B11F460FF04C0A5
S1130A506F5F7F4F8F4F9F4F089557FD9058440FFE
S1130A60551F59F05F3F71F04795880F97FB991F09
S1130A7061F09F3F79F087950895121613061406C6
S1130A80551FF2CF4695F1DF08C016161706180653
S1130A90991FF1CF86957105610508940895E8942E
S1130AA0BB2766277727CB0197F908950E9469052C
S1130AB00C941C050E940E0538F00E94150520F0C8
S1130AC0952311F00C9405050C940B0511240C943A
S1130AD050050E942D0570F3959FC1F3950F50E0CA
S1130AE0551F629FF001729FBB27F00DB11D639FDC
S1130AF0AA27F00DB11DAA1F649F6627B00DA11D82
S1130B00661F829F2227B00DA11D621F739FB00D27
S1130B10A11D621F839FA00D611D221F749F332797
S1130B20A00D611D231F849F600D211D822F762F30
S1130B306A2F11249F5750409AF0F1F088234AF00D
S1130B40EE0FFF1FBB1F661F771F881F9150504079
S1130B50A9F79E3F510580F00C9405050C945005AF
S1130B605F3FE4F3983ED4F3869577956795B79500
S1130B70F795E7959F5FC1F7FE2B880F911D96951A
S1130B80879597F90895AEE0B0E0E9ECF5E00C94B0
S1130B907F080D891E898F89988D26E02C831A83FE
S1130BA0098397FF02C080E090E801979E838D83BC
S1130BB0AE01455E5F4F698D7A8DCE0101960E942C
S1130BC0F3054D815E8157FD0AC02F813885421798
S1130BD053070CF49A01F801E20FF31F10822E96CA
S1130BE0E4E00C949B08ACE0B0E0E9EFF5E00C9491
S1130BF071087C016B018A01FC01178216828381D2
S1130C0081FFBDC1CE0101964C01F7019381F6012C
S1130C1093FD859193FF81916F01882309F4ABC102
S1130C20853239F493FD859193FF81916F0185326B
S1130C3029F4B70190E00E94DB07E7CF512C312C57
S1130C4020E02032A0F48B3269F030F4803259F085
S1130C50833269F420612CC08D3239F0803339F449
S1130C60216026C02260246023C0286021C027FDA3
S1130C7027C030ED380F3A3078F426FF06C0FAE08A
S1130C805F9E300D1124532E13C08AE0389E300D20
S1130C901124332E20620CC08E3221F426FD6BC148
S1130CA0206406C08C3611F4206802C0883641F4F2
S1130CB0F60193FD859193FF81916F018111C1CF5D
S1130CC0982F9F7D9554933028F40C5F1F4FFFE3BA
S1130CD0F9830DC0833631F0833771F0833509F021
S1130CE05BC022C0F801808189830E5F1F4F4424BA
S1130CF04394512C540115C03801F2E06F0E711C5D
S1130D00F801A080B18026FF03C0652D70E002C009
S1130D106FEF7FEFC5012C870E94D0072C01830160
S1130D202C852F77222E17C03801F2E06F0E711C2C
S1130D30F801A080B18026FF03C0652D70E002C0D9
S1130D406FEF7FEFC5012C870E94C5072C012C850E
S1130D502068222E830123FC1BC0832D90E04816BB
S1130D605906B0F4B70180E290E00E94DB073A94A0
S1130D70F4CFF50127FC859127FE81915F01B7012E
S1130D8090E00E94DB0731103A94F1E04F1A5108C9
S1130D904114510471F7E5C0843611F0893639F5F0
S1130DA0F80127FF07C060817181828193810C5F04
S1130DB01F4F08C060817181072E000C880B990BAE
S1130DC00E5F1F4F2F76722E97FF09C09095809566
S1130DD0709561957F4F8F4F9F4F2068722E2AE048
S1130DE030E0A4010E941308A82EA81844C0853737
S1130DF029F42F7EB22E2AE030E025C0F22FF97FAD
S1130E00BF2E8F36C1F018F4883579F0B4C080371E
S1130E1019F0883721F0AFC02F2F2061B22EB4FE15
S1130E200DC08B2D8460B82E09C024FF0AC09F2FEB
S1130E309660B92E06C028E030E005C020E130E01D
S1130E4002C020E132E0F801B7FE07C06081718181
S1130E50828193810C5F1F4F06C06081718180E0A5
S1130E6090E00E5F1F4FA4010E941308A82EA8183B
S1130E70FB2DFF777F2E76FE0BC0372D3E7FA5140A
S1130E8050F474FE0AC072FC08C0372D3E7E05C0C3
S1130E90BA2C372D03C0BA2C01C0B52C34FF0DC0B9
S1130EA0FE01EA0DF11D8081803311F4397E09C001
S1130EB032FF06C0B394B39404C0832F867809F03C
S1130EC0B39433FD13C030FF06C05A2CB31418F486
S1130ED0530C5B18B32CB31468F4B70180E290E0B0
S1130EE03C870E94DB07B3943C85F5CFB31410F420
S1130EF03B1801C0312C34FF12C0B70180E390E0ED
S1130F003C870E94DB073C8532FF17C031FD03C0DC
S1130F1088E790E002C088E590E0B7010CC0832F19
S1130F20867859F031FF02C08BE201C080E237FDC0
S1130F308DE2B70190E00E94DB07A51438F4B701F5
S1130F4080E390E00E94DB075A94F7CFAA94F4015F
S1130F50EA0DF11D8081B70190E00E94DB07A1102A
S1130F60F5CF332009F451CEB70180E290E00E941E
S1130F70DB073A94F6CFF7018681978102C08FEFA1
S1130F809FEF2C96E2E10C948D08FC0105906150D2
S1130F9070400110D8F7809590958E0F9F1F08958B
S1130FA0FC016150704001900110D8F78095909534
S1130FB08E0F9F1F08950F931F93CF93DF93FB0111
S1130FC0238121FD03C08FEF9FEF28C022FF16C0AD
S1130FD046815781248135814217530744F4A08107
S1130FE0B1819D012F5F3F4F318320838C932681F4
S1130FF037812F5F3F4F3783268310C0EB01092FC2
S1131000182F0084F185E02D0995892BE1F68E8156
S11310109F8101969F838E83812F902FDF91CF91A3
S11310201F910F910895FA01AA27283051F1203118
S113103081F1E8946F936E7F6E5F7F4F8F4F9F4F68
S1131040AF4FB1E03ED0B4E03CD0670F781F891FAA
S11310509A1FA11D680F791F8A1F911DA11D6A0F78
S1131060711D811D911DA11D20D009F468943F912B
S11310702AE0269F11243019305D3193DEF6CF012A
S11310800895462F4770405D4193B3E00FD0C9F7F0
S1131090F6CF462F4F70405D4A3318F0495D31FD5D
S11310A04052419302D0A9F7EACFB4E0A6959795B0
S11310B0879577956795BA95C9F700976105710586
S11310C008959B01AC010A2E0694579547953795D0
S11310D02795BA95C9F7620F731F841F951FA01D2A
S11310E008952F923F924F925F926F927F928F92C8
S11310F09F92AF92BF92CF92DF92EF92FF920F93A3
S11311001F93CF93DF93CDB7DEB7CA1BDB0B0FB6AC
S1131110F894DEBF0FBECDBF09942A883988488869
S11311205F846E847D848C849B84AA84B984C884FF
S1131130DF80EE80FD800C811B81AA81B981CE0FF6
S1131140D11D0FB6F894DEBF0FBECDBFED010895DB
S1071150F894FFCF3D
S113115441542B5253540D0041542B4349504D4F89
S113116444453D300D0041542B4349504D55583DA1
S1131174310D0041542B43495053544152543D3092
S11311842C22544350222C226170692E7468696E97
S113119467737065616B2E636F6D222C38300D009C
S11311A441542B43495053454E443D302C31323540
S11311B40D004745542068747470733A2F2F61707E
S11311C4692E7468696E67737065616B2E636F6DE5
S11311D42F7570646174653F6170695F6B65793DF7
S11311E44B583355453646523459484A4F464C3188
S11311F4266669656C64313D256920485454502F32
S1091204312E300A0D003A
S9030000FC
