S00B00004441342E7372656360
S11300000C9434000C943E000C943E000C943E007E
S11300100C943E000C943E000C943E000C943E0064
S11300200C943E000C943E000C943E000C943E0054
S11300300C943E000C943E000C943E000C943E0044
S11300400C943E000C943E000C943E000C943E0034
S11300500C943E000C943E000C943E000C943E0024
S11300600C943E000C943E0011241FBECFEFD8E048
S1130070DEBFCDBF0E9440000C9471010C940000BF
S11300808FEF84B98AB9E0E8F0E0808183628083ED
S1130090E1E8F0E080818B61808389E190E09093D6
S11300A089008093880085E090E090938B00809392
S11300B08A0084B5836284BD85B58B6085BD99E172
S11300C097BD85E088BDE0EBF0E0208123622083CA
S11300D0E1EBF0E020812B6020839093B3008093C8
S11300E0B40028E830E00F2EF3EBEF2EF12CF02DC6
S11300F015E0E4EBF0E0AAE8B0E045E050E028C009
S1130100E901888199810F969983888387EE93E02A
S11301100197F1F700C000006D917C911197E901FE
S1130120888199816817790780F48D919C91119742
S1130130059611969C938E936D917C911197E9018C
S1130140888199816817790780F311965C934E939F
S1130150E90188819981863E910590F287B5863EB2
S1130160C0F487B5815F87BD87EE93E00197F1F70F
S113017000C0000098B587B5981738F488B58B5F30
S113018088BD98B587B59817C8F318BD87B5863E5E
S113019040F3E7018881863EE0F4E7018881815FCE
S11301A0888387EE93E00197F1F700C00000908107
S11301B0E7018881981740F480818F5F8083908164
S11301C0E70188819817C0F31083E7018881863E90
S11301D020F3E901888199814F9740F1E9018881F1
S11301E099810F9799838883DFEF64E38CE0D15082
S11301F060408040E1F700C000008D919C91119710
S11302004A9760F08D919C911197019711969C9358
S11302108E938D919C9111974A97A0F711965C93B8
S11302204E93E901888199814F97C0F687B58F3144
S1130230C8F087B58F5087BDDFEF64E38CE0D15001
S113024060408040E1F700C0000088B58A3130F09A
S113025088B5815088BD88B58A31D0F718BD87B577
S11302608F3138F7E70188818F31D8F0E701888131
S11302708F508883DFEF64E38CE0D150604080408E
S1130280E1F700C0000080818A3130F08081815024
S1130290808380818A31D0F71083E70188818F3190
S11302A028F787B5863E08F053CF87B5815F87BDB1
S11302B0DFEF64E38CE0D15060408040E1F700C0A0
S11302C0000098B587B5981738F488B58F5F88BD56
S11302D098B587B59817C8F318BD87B5863E28F337
S10902E037CFF894FFCFB4
S9030000FC
