:100000000C9434000C943E000C943E000C943E0082
:100010000C943E000C943E000C943E000C943E0068
:100020000C943E000C943E000C943E000C943E0058
:100030000C943E000C943E000C943E000C943E0048
:100040000C943E000C943E000C943E000C943E0038
:100050000C943E000C943E000C943E000C943E0028
:100060000C943E000C943E0011241FBECFEFD8E04C
:10007000DEBFCDBF0E9440000C9462000C940000D3
:100080008FEF84B915B881E090E030E020E04FE7D1
:100090005AE166E0415050406040E1F700C0000086
:1000A000019731F485B18F5F85B9832F922FEFCF00
:1000B0008FE79AE146E0815090404040E1F700C070
:0800C0000000F0CFF894FFCF1F
:00000001FF
