:100000000C9434000C943E000C943E000C943E0082
:100010000C943E000C943E000C943E000C943E0068
:100020000C943E000C943E000C943E000C943E0058
:100030000C943E000C943E000C943E000C943E0048
:100040000C943E000C943E000C943E000C943E0038
:100050000C943E000C943E000C943E000C943E0028
:100060000C943E000C943E0011241FBECFEFD8E04C
:10007000DEBFCDBF0E9440000C946E000C940000C7
:100080001AB88FEF84B980E29EE490938700809342
:100090008600E0E8F0E0808182688083E1E8F0E0BB
:1000A00080818A618083E8E8F0E080E991E024E5DE
:1000B0003BE008C0AFE3BCE91197F1F700C00000D6
:1000C0003183208349B14230A9F3AFE3BCE91197F2
:1000D000F1F700C0000091838083F4CFF894FFCF44
:00000001FF
